:020000040800F2
:10000000E008002051310008593100085B31000838
:100010005D3100085F310008613100080000000018
:100020000000000000000000000000006331000834
:100030006531000800000000673100086F0B000800
:100040006B3100086B3100086B3100086B31000820
:100050006B3100086B3100086B3100086B31000810
:100060006B3100087B0B00086B3100086B31000816
:100070006B310008430200086B3100086B31000847
:100080006B3100086B310008000000006B31000884
:100090006B3100086B3100086B3100086B310008D0
:1000A0006B3100086B3100086B3100086B310008C0
:1000B0006B310008000000006B31000800000000F8
:1000C0006B310008000000006B3100086B31000844
:1000D0006B3100086B3100086B3100080000000034
:1000E00000000000000000006B3100086B310008C8
:1000F0006B3100086B3100086B3100086B31000870
:100100006B31000800000000000000006B310008A7
:1001100000000000000000000000000000000000DF
:1001200000000000000000000000000000000000CF
:1001300000000000000000000000000000000000BF
:1001400000000000000000000000000000000000AF
:1001500000000000000000006B3100086B31000857
:100160006B3100086B31000800F002F800F03AF83B
:100170000AA090E8000C82448344AAF10107DA4502
:1001800001D100F02FF8AFF2090EBAE80F0013F01A
:10019000010F18BFFB1A43F001031847D0320000CB
:1001A000F0320000103A24BF78C878C1FAD852075C
:1001B00024BF30C830C144BF04680C6070470000E1
:1001C0000023002400250026103A28BF78C1FBD860
:1001D000520728BF30C148BF0B6070471FB51FBD15
:1001E00010B510BD03F0CDF81146FFF7F7FF00F092
:1001F00009F803F0EBF803B4FFF7F2FF03BC03F0D8
:10020000F3F8000000F02BFA00220321104600F062
:100210008FF901221146122000F08AF901211220E3
:1002200000F0B8F9002000F0D5F9012000F016F830
:100230004FF4967000F015F802E0052000F0E6F9A2
:10024000FBE710B5012000F0DFFE00F019F80121F6
:10025000014802F0DDF910BD002C01407249087020
:100260007047B0F57A7F02DD4FF47A7105E010F542
:100270007A7F01DA6D4900E001466D4A11807047CE
:100280007FB500200390029001906748007890B9F4
:10029000684802F017FA00220221664802F07AFB51
:1002A00000220121634802F075FB002211466148DB
:1002B00002F070FB7FBD5F4802F0FFF91B2000F0E9
:1002C000F3F804461B2000F0CDF80546214601F066
:1002D00024FB59490870412000F0E6F8044641200B
:1002E00000F0C0F80546214601F017FB534908709D
:1002F0002E2000F0D9F804462E2000F0B3F8054671
:10030000214601F00AFB4E4908704B4800784B49E2
:10031000097800EB41014A48007801EB8000494927
:10032000087049480978405C4849087048480068A6
:10033000A0EB20303E49B1F9001008444449086060
:1003400008460068001300B24249088001A802ABC9
:1003500003AA00903D4801783E48B0F9000003F040
:100360004AF8019800F26540B0F50C6F02DD4FF4D9
:100370000C6009E0019800F265400A2801DA0A20C1
:1003800002E0019800F2654002460221294802F08D
:1003900001FB029800F26540B0F50C6F02DD4FF4EE
:1003A0000C6009E0029800F265400A2801DA0A2090
:1003B00002E0029800F26540024601211D4802F069
:1003C000E9FA039800F26540B0F50C6F02DD4FF4D6
:1003D0000C6009E0039800F265400A2801DA0A205F
:1003E00002E0039800F2654002460021114802F045
:1003F000D1FA1948007801280AD014480078012859
:1004000006D11648006816490860002013490860A4
:100410000E4800781049087010480068401C0F49C9
:10042000086000BF46E700000200002018FCFFFF44
:1004300000000020002C01400300002004000020E8
:10044000050000200600002062340008070000209C
:100450000C0000200A0000200800002014000020EA
:10046000100000200146002904DB0F2902DC4FF0B8
:1004700090407047102903DB1F2901DCFE48F8E794
:10048000202903DB2F2901DCFC48F2E7302903DBBC
:100490003F2901DCFA48ECE7402903DB4F2901DC66
:1004A000F848E6E70020E4E70146102904DB1F29AD
:1004B00002DCA1F11000C1B2202904DB2F2902DCEB
:1004C000A1F12000C1B2302904DB3F2902DCA1F1F7
:1004D0003000C1B2402904DB4F2902DCA1F1400009
:1004E000C1B2012088407047014612291ED2DFE8C0
:1004F00001F0090B0D0F111315171D1D1D1D1D1DDD
:100500001D1D191B002070470120FCE70220FAE79F
:100510000320F8E70420F6E70520F4E70620F2E7D9
:100520000720F0E70820EEE70920ECE70020EAE7E3
:100530002DE9F04105460C461646012C1BD12846F4
:10054000FFF7B2FF07462846FFF78CFF80463B4681
:100550000022214601F08EF92846FFF7A5FF074645
:100560002846FFF77FFF80463B463246002101F0D8
:10057000A8F9BDE8F0812846FFF796FF0746284610
:10058000FFF770FF80463B460022214601F072F9DA
:1005900000BFEEE72DE9F04105460C462846FFF77F
:1005A00083FF06462846FFF75DFF07462246314691
:1005B00001F0ACF9BDE8F08170B504462046FFF7C4
:1005C00073FF05462046FFF74DFF0646294601F01A
:1005D000A4F970BD70B504462046FFF785FF0546B7
:1005E00002222946002000F0FCFB00BF022000F0A0
:1005F00041FD0028FAD0022000F045FD00F017FD73
:10060000C0F30B0070BDA0480068704770B5044689
:100610009D48056801F086F800E000BF9A48006830
:10062000401BA042F9D370BD10B540F61D1001F07B
:10063000CBFB08B101F0D7FB022140F6FF7001F0BF
:1006400096F8012805D140F6FF7001F075F80128F1
:1006500001D0002010BD01F06AF80120FAE770B562
:10066000FFF7E2FF08B900BFFEE702F005FE87488A
:1006700000686422B0FBF2F1481EB0F1807F00D325
:100680001BE0481E4FF0E022506150170F22002857
:1006900004DB13071C0E7E4B1C5406E013071D0ED3
:1006A0007C4B00F00F04241F1D5500BF00204FF0AD
:1006B000E02290610720106100BF4FF4407001F00C
:1006C00081F940F2115001F047FA40F2125001F066
:1006D00043FA40F2135001F03FFA40F2165001F095
:1006E0003BFA1B20FFF7E0FE04461B20FFF7BAFE93
:1006F000054623460022114601F0BCF84120FFF7D1
:10070000D3FE04464120FFF7ADFE054623460022F6
:10071000114601F0AFF82E20FFF7C6FE04462E204A
:10072000FFF7A0FE054623460022114601F0A2F87D
:100730001C20FFF7B9FE04461C20FFF793FE054678
:1007400023460022022101F095F81C20FFF7ACFEA1
:1007500004461C20FFF786FE05462246022101F0D2
:10076000F4F80A20FFF7A0FE04460A20FFF77AFEFD
:10077000054623460022022101F07CF80920FFF7FC
:1007800093FE04460920FFF76DFE0546234600222E
:10079000022101F06FF80820FFF786FE04460820CA
:1007A000FFF760FE054623460022022101F062F8B1
:1007B0001F20FFF779FE04461F20FFF753FE054672
:1007C00023460022022101F055F81E20FFF76CFE9F
:1007D00004461E20FFF746FE05462346002202215E
:1007E00001F048F81D20FFF75FFE04461D20FFF7CB
:1007F00039FE054623460022022101F03BF80A207B
:10080000FFF752FE04460A20FFF72CFE054623465A
:100810000022114601F055F80920FFF745FE044675
:100820000920FFF71FFE054623460022114601F06E
:1008300048F80820FFF738FE04460820FFF712FEAC
:10084000054623460022114601F03BF81F20FFF722
:100850002BFE04461F20FFF705FE05462346002217
:10086000114601F02EF81E20FFF71EFE04461E2042
:10087000FFF7F8FD05460FE00004004800080048B7
:10088000000C004800140048180000202000002040
:1008900000E400E018ED00E023460022114601F0DC
:1008A00010F81D20FFF700FE04461D20FFF7DAFDBB
:1008B000054623460022114601F003F80A20FFF7FF
:1008C000F3FD04460A20FFF7CDFD0546224602212E
:1008D00001F03BF80920FFF7E7FD04460920FFF788
:1008E000C1FD05462246022101F02FF80820FFF73E
:1008F000DBFD04460820FFF7B5FD05462246022130
:1009000001F023F81F20FFF7CFFD04461F20FFF75B
:10091000A9FD05462246022101F017F81E20FFF727
:10092000C3FD04461E20FFF79DFD05462246022119
:1009300001F00BF81D20FFF7B7FD04461D20FFF75F
:1009400091FD05462246022100F0FFFF4FF4A06012
:1009500001F002F940F2096001F0FEF84FF4A060E6
:1009600001F0FAF8032001F08AF9002201210920A0
:1009700001F02DF8002000F06BFC00208449886114
:100980008448C860002048614FF4806008610020FE
:10099000C8618148086001208860000248604FF407
:1009A00040500862002000F08EFC002000F00FFD97
:1009B000002000F039FD0221002000F079FE002126
:1009C000084600F06CFD002000F03DFD00210120F4
:1009D00000F0D6F9002000F0C4F90121084600F02B
:1009E000C9FA4FF46021012000F0F0FA00F02DF96F
:1009F00000F039F900F013FC00F0E4F800F0F5F82D
:100A000000F00EF90121080200F06AF940F20B60D3
:100A100001F0A2F8614801F0BBFC00206049888029
:100A200008802020488040F6CA0088600020C880E6
:100A300008735A4801F07AFD5949584801F01CFDE5
:100A400000220221554801F0E5FF00220121534810
:100A500001F0E0FF00221146504801F0DBFF0022C8
:100A600002214E4801F0A9FF002201214B4801F06C
:100A7000A4FF00221146494801F09FFF7022022185
:100A8000464801F05AFF70220121444801F055FF09
:100A900070220021414801F050FF002202213F480E
:100AA00001F078FF002201213C4801F073FF002291
:100AB00011463A4801F06EFF00203A49C8800820EC
:100AC0000881002048814FF4007088810A46022185
:100AD000324801F029FE334A0121304801F024FE5A
:100AE000304A00212D4801F01FFE4FF400602E49CE
:100AF00008600020486008613C2008814FF4805065
:100B00004861002048814FF48040C860234801F0CC
:100B1000BBFD224801F000FD012202211F4802F026
:100B20002FF8012211461D4802F02AF80122002167
:100B30001A4802F025F804220221184802F04EF863
:100B400004220121154802F049F80422002113482B
:100B500002F044F8002211460D2000F038FF012178
:100B60000E4801F041FD0D4801F0D1FC70BD0F4869
:100B70000068401C0D490860704710B50221002034
:100B800000F02BFD18B10221002000F088FD10BDFF
:100B9000240000201C0000204C240140002C0140B7
:100BA000480000207000002058000020180000209D
:100BB00010B540F2093001F007F840F2093001F0B9
:100BC00011F810BDFE48006800F0010028B9FC488B
:100BD000006840F00100FA4908607047F848006872
:100BE00020F00100F64908607047F548006840F0C1
:100BF0000800F349086000BFF148006800F00800F1
:100C00000028F9D1EE48006840F00400EC49086083
:100C100000BFEB48006800F004000028F9D17047DD
:100C2000E748006840F48070E54908607047E44890
:100C3000006820F48070E24908607047E04800686E
:100C400040F40000DE4908607047DD48006820F489
:100C50000000DB4908607047D948006840F08070A8
:100C6000D74908607047D648006820F08070D449A2
:100C70000860704710B5D24A121F126822F4C052A1
:100C8000CF4B1B1F1A60012804D002281BD0042858
:100C900022D122E0CA4A121F126822F46042C84BD5
:100CA0001B1F1A601A4612684B1E4FF4604404EA78
:100CB00043331A43C24B1B1F1A601A46126842F490
:100CC00000621A600AE0BE4A121F126842F48052A3
:100CD000BB4B1B1F1A6001E000BF00BF00BF10BD6F
:100CE000F9B100F480723AB1B54A121F126842F4A9
:100CF0008072B34B1B1F1A6000F480623AB1B04A95
:100D0000121F126842F48062AD4B1B1F1A6000F084
:100D100002022AB3AA4A126842F00202A84B1A60E1
:100D20001EE000F480723AB1A54A121F126822F444
:100D30008072A34B1B1F1A6000F480623AB1A04A74
:100D4000121F126822F480629D4B1B1F1A6000F074
:100D500002022AB19A4A126822F00202984B1A60E3
:100D6000704730B19649096841F40061944A1160B6
:100D700005E09349096821F40061914A11607047C8
:100D800010B5012802D0022828D113E08C4A243261
:100D9000126822F470028A4B24331A601A461268D1
:100DA0004B1E4FF4700404EA03531A43844B24335C
:100DB0001A6014E0824A3032126822F44012804BEA
:100DC00030331A601A4612684B1E4FF4401404EA7E
:100DD00003531A437A4B30331A6000E000BF00BF60
:100DE00010BD70B51446122900D10021062810D27A
:100DF000734D2C352A6800EB80061F25B540AA43A9
:100E000000EB800501FA05F52A436D4D2C352A606B
:100E10002AE00C2812D26A4D28352A68851F05EB76
:100E200085061F25B540AA43851F05EB850501FAF8
:100E300005F52A43624D28352A6015E0102813D2A3
:100E40005F4D24352A68A0F10C0505EB85061F25AA
:100E5000B540AA43A0F10C0505EB850501FA05F59F
:100E60002A43574D24352A600A2910D2544D08359B
:100E70002B6801EB41060725B540AB4301EB41056B
:100E800004FA05F52B434E4D08352B6015E0122969
:100E900013D24B4D2D1D2B68A1F10A0505EB45061C
:100EA0000725B540AB43A1F10A0505EB450504FA5A
:100EB00005F52B43424D2D1D2B6070BDF0B503464B
:100EC0003F4E30363668C6F301553D4E30363468F5
:100ED000EE1A06EB8606C6F10F071F26BE40B44386
:100EE000EE1A06EB8606C6F10F0601FA06F6344343
:100EF000334E303634600A2910D2314E083630680D
:100F000001EB41070726BE40B04301EB410602FA60
:100F100006F630432A4E0836306015E0132913D206
:100F2000274E361D3068A1F10A0606EB4607072654
:100F3000BE40B043A1F10A0606EB460602FA06F6E9
:100F400030431F4E361D3060F0BD30B502460020E4
:100F50001B4C30342468C4F301539C1AC4F10300C1
:100F6000032806D88000C1F30B04164D0544C5F8CC
:100F7000144430BD91B100F001022AB1104A126848
:100F800042F480120E4B1A6000F00202EAB10C4AE1
:100F9000126842F400420A4B1A6016E000F00102A7
:100FA0002AB1074A126822F48012054B1A6000F039
:100FB000020252B1024A126822F40042004B03E0DE
:100FC00008240140002001401A607047012802D027
:100FD000022816D10AE09B4A126822F46022994B3B
:100FE0001A601A4612680A431A600BE0954A1268A2
:100FF00022F4E042934B1A601A4612680A431A60C0
:1010000000E000BF00BF704700F0010129B18D4929
:10101000096841F480018B4A116000F0020129B196
:101020008849096841F40011864A11607047854873
:101030004430006880B27047024632B1012A08D0BD
:10104000022A0AD0032A10D10BE07E48343001680E
:101050000DE07C483830016809E07A483C3001688E
:1010600005E078484030016801E0002100BF00BF82
:1010700088B2704701460020724A083A12680A4056
:1010800002B1012070476F490839096881436D4AF0
:10109000083A1160704702460020012A04D0022A53
:1010A00010D0042A2AD11BE0664B083B1B6803F0D2
:1010B0000101644B1B1F1B6803F040030BB101B11E
:1010C00001201CE05F4B083B1B6803F002015D4BF5
:1010D0001B1F1B6803F020030BB101B101200EE0C0
:1010E000584B083B1B6803F00401564B1B1F1B6841
:1010F00003F080030BB101B1012000E000BF00BF8D
:10110000704750490839096881434E4A083A1160CE
:10111000704700F0010139B14A49091F096841F0DF
:101120004001484A121F116000F0020139B14549DF
:10113000091F096841F02001424A121F116000F0A6
:10114000040139B13F49091F096841F080013D4A56
:10115000121F1160704700F0010139B13949091FB0
:10116000096821F04001374A121F116000F00201A6
:1011700039B13449091F096821F02001314A121F91
:10118000116000F0040139B12E49091F096821F0EE
:1011900080012C4A121F116070472A49091F0968F3
:1011A000294A1140274A121F11601146096801435C
:1011B000116011460968254A1143224A121F116025
:1011C00070472049091F09681F4A1F3211401D4AF4
:1011D000121F1160012804D002280BD003281BD154
:1011E00011E01849091F096841F40001154A121F4E
:1011F000116012E01349091F096841F48001114A86
:10120000121F116009E00F49091F096841F44001EC
:101210000C4A121F116000E000BF00BF7047094870
:10122000001F0068084908400649091F0860704708
:10123000C0F30B02034B20331A60C1F30B021B1FD8
:101240001A60704708240140E0FD3FFF0002C00023
:1012500000EB8001FA4A02EB8101896821F001016B
:1012600000EB8002F64B03EB82029160002100EB61
:10127000800203EB8202916000EB800203EB8202AA
:10128000D16000EB800203EB8202116100EB80026F
:1012900003EB820251611946496883000F229A408C
:1012A0001143E74A5160704700210160416001210C
:1012B00081600021C16001610121416100218161E2
:1012C000C1610162704730B500EB8004DC4D05EB75
:1012D00084040B68236100EB800405EB8404CB6875
:1012E000636100EB800405EB8404CB69E36000EBF1
:1012F00080032C4604EB83039A6822F47C520C6929
:101300004B6823430C6A23431A4300EB80032C46AB
:1013100004EB83039A608B6863B900EB800304EBF2
:1013200083039B6843F0400300EB800405EB8404D7
:10133000A3600DE000EB8003C14C04EB83039B68CA
:1013400023F0400300EB8004BD4D05EB8404A36053
:101350004B6973B900EB8003B94C04EB83039B68C2
:1013600043F0800300EB8004B54D05EB8404A360DB
:101370000DE000EB8003B24C04EB83039B6823F089
:10138000800300EB8004AE4D05EB8404A3608B6901
:1013900073B900EB8003AA4C04EB83039B6823F032
:1013A000100300EB8004A64D05EB8404A3600DE060
:1013B00000EB8003A24C04EB83039B6843F0100313
:1013C00000EB80049E4D05EB8404A36030BD00EB70
:1013D00080019B4A02EB8101896841F0200100EB0A
:1013E0008002974B03EB82029160704700EB800113
:1013F000934A02EB8101896821F0200100EB800211
:101400008F4B03EB82029160704700EB80018C4AA6
:1014100002EB8101896841F4804100EB8002884B36
:1014200003EB82029160704700EB8001844A02EB7B
:101430008101896821F4804100EB8002804B03EB3D
:1014400082029160704700EB80017D4A02EB8101CE
:10145000896841F0010100EB8002794B03EB8202C5
:101460009160704700EB8001754A02EB8101896849
:1014700021F0010100EB8002714B03EB82029160CD
:10148000704700EB80026E4B03EB820211617047E4
:1014900000EB80026A4B03EB82025161704700EB64
:1014A0008002674B03EB8202D1607047014601EB7B
:1014B0008100634A02EB8000C068704710B50A469D
:1014C00000EB80035E4C04EB8303996821F44051E8
:1014D000114300EB800304EB8303996010BD10B54A
:1014E0000A4600EB8003564C04EB8303996821F411
:1014F0004061114300EB800304EB8303996010BD4E
:1015000010B50A4600EB80034D4C04EB8303996849
:1015100021F44071114300EB800304EB83039960D5
:1015200010BD00EB8001464A02EB8101896841F061
:10153000800100EB8002424B03EB82029160704716
:1015400000EB80013E4A02EB8101896821F08001B5
:1015500000EB80023A4B03EB82029160704700EB94
:101560008001374A02EB8101896841F0400100EBBC
:101570008002334B03EB82029160704700EB8001E5
:101580002F4A02EB8101896821F0400100EB8002C3
:101590002B4B03EB82029160704710B571B900EBE1
:1015A0008002274B03EB8202926822F0100200EBCC
:1015B0008003234C04EB83039A600DE000EB800270
:1015C0001F4B03EB8202926842F0100200EB800393
:1015D0001B4C04EB83039A6010BDF0B50246002358
:1015E00000240F250E2601293ED0022904D004290B
:1015F00014D008294AD125E011480068970001FA63
:1016000007F700EA07049000C44002EB82000C4F89
:1016100007EB8000806800F0020338E008480068AB
:10162000970001FA07F700EA07049000C44002EBB4
:101630008200034F07EB8000806800F0040326E07F
:101640000000024034480068970001FA07F700EAFA
:1016500007049000C44002EB82002F4F07EB80008C
:10166000806800F0080312E02B480068970005FA34
:1016700007F700EA07049000C44002EB8200264FFF
:1016800007EB8000806800EA060300E000BF00BFAF
:1016900004EA030008B10120F0BD0020FCE71E4A67
:1016A0005268830001FA03F31A431B4B5A607047D8
:1016B00010B500EB8002184B03EB820292680A43DC
:1016C00000EB8003144C04EB83039A6010BD10B54B
:1016D00000EB8002104B03EB820292688A4300EB1E
:1016E00080030D4C04EB83039A6010BD10B50246D5
:1016F000094B1B68940001FA04F423400BB101204C
:1017000000E0002010BD044A5268830001FA03F390
:101710001A43014B5A6070470000024000203049D4
:10172000086070474AF6AA202D49086070474CF6B9
:10173000CC402B490860704710B50146294B002268
:1017400045F25550264C206000BF2548C06800F087
:101750000402581E031E01D0002AF6D10AB100204F
:1017600010BDC1F30B001E4C20610120F8E730B51D
:1017700002460B461B4C002145F25550184D28607F
:1017800000BF1748C06800F00101601E041E01D0B0
:101790000029F6D109B1002030BD11484360114C39
:1017A00000BF0F48C06800F00201601E041E01D097
:1017B0000029F6D109B10020EEE7C2F30B00084D75
:1017C000A8604AF6AA2028600120E5E701460448FF
:1017D000C068084008B1012070470020FCE7000005
:1017E00000300040FFFF0F0010B504467349601A37
:1017F0008C4220D006DCB4F1904F0AD070482044CF
:10180000A0BB0FE0B0F5806F1ED0B0F5406F2ED1B9
:1018100023E040F6112000F0D7F940F6112000F047
:10182000E1F925E040F6122000F0CEF940F6122052
:1018300000F0D8F91CE040F6132000F0C5F940F69E
:10184000132000F0CFF913E040F6142000F0BCF9AB
:1018500040F6142000F0C6F90AE040F6162000F029
:10186000B3F940F6162000F0BDF901E0FFE700BF34
:1018700000BF10BDF0B504460D4616462168E2686B
:10188000002019E0012787401F409FB14FEA400C1C
:10189000032707FA0CF7B943470005FA07F739435E
:1018A0004FEA400C032707FA0CF7BA43470006FA41
:1018B00007F73A43471CB8B21028E3D32160E2602F
:1018C000F0BDF0B50C461546012C03D146681E4309
:1018D000466002E046689E434660826800210DE053
:1018E00001268E401E403EB14F000326BE40B2434B
:1018F0004E0005FA06F632434E1CB1B21029EFD362
:101900008260F0BD81617047816270470AB1816178
:1019100000E08162704741617047024610690840EB
:1019200008B1012070470020FCE70146086980B239
:10193000704702465069084008B1012070470020F6
:10194000FCE70146486980B27047F0B503461C6A5F
:101950005D6A00200DE00126864016403EB18700FA
:101960000F26BE40B443860001FA06F63443461CF7
:10197000B0B20828EFD3082011E0012686401640B7
:101980005EB1A0F10806B7000F26BE40B543A0F136
:101990000806B60001FA06F63543461CB0B2102818
:1019A000EBD31C625D62F0BD4FF480320A43C2612A
:1019B000C161C261C269C269704700000008004885
:1019C00000FCFFB743490143434A11607047F0B53B
:1019D0000B460021002400253F4E366806F4E066E1
:1019E000B6F5E06F02D100BF042526E03A4E366816
:1019F00006F4E066B6F5C06F02D1012403251CE0B1
:101A0000354E366806F4E066B6F5A06F02D10224C2
:101A1000022512E0304E366806F4E066B6F5806FB7
:101A200002D10324012508E02B4E366806F4E06657
:101A3000B6F5407F01D104240025C4F1040603FA61
:101A400006F1C5F104070F26FE4016403143090197
:101A5000224E315400F01F070126BE404711BF003F
:101A600007F1E027C7F80061F0BD00F01F02012177
:101A700091401B4A431142F823107047194A0A400B
:101A80000243154B1B1F1A6070471349091D096853
:101A90000143114A121D116070470F49091D096861
:101AA00081430D4A121D11607047042808D14FF080
:101AB000E021096941F004014FF0E022116107E0E3
:101AC0004FF0E021096921F004014FF0E02211619B
:101AD000704700000000FA050CED00E000E400E0B3
:101AE00080E100E080FFFF1FFD48006840F001003A
:101AF000FB49086000BFFA48006800F002000028B7
:101B0000F9D0F7484068F7490840F5494860084669
:101B10004068F5490840F24948600846406820F4AA
:101B20004000486008460068F0490840EC490860F9
:101B30000846C06A20F00F00C8620846006B40F2F9
:101B400043118843E64908630846406B20F00100D2
:101B50004863002088607047E14A02EB90110968F1
:101B600000F01F0301229A401143DD4B03EB90125A
:101B700011607047DA4A02EB9011096800F01F0308
:101B800001229A409143D64B03EB901211607047AB
:101B9000D34A02EB9011096800F01F0301229A401A
:101BA0001143CF4B03EB901211607047CC4A02EB0C
:101BB0009011096800F01F0301229A409143C84B1D
:101BC00003EB901211607047C54A02EB901109684F
:101BD00000F01F0301229A401143C14B03EB901206
:101BE00011607047BE4A02EB9011096800F01F03B4
:101BF00001229A409143BA4B03EB90121160704757
:101C0000B748006A40F48030B54908627047B4486C
:101C1000006A20F48030B249086270470146002013
:101C2000AF4A506820F0030041EA0002AC4B5A6012
:101C30007047AB48406800F00C0070470146002038
:101C4000A74A506820F0F00041EA0002A44B5A6015
:101C5000704701460020A24A506820F4E06041EA43
:101C600000029F4B5A607047014600209C4A506812
:101C700020F4605041EA0002994B5A60704798493D
:101C8000496821F44041964A51601146096B21F49C
:101C900080711163052839D2DFE800F0030A1420AF
:101CA0002C008F49096B21F480718D4A11632EE05D
:101CB0008B4949688A4A51601146096B41F4807129
:101CC000116324E08649496841F48041844A5160A7
:101CD0001146096B41F48071116318E0804949682D
:101CE00041F400417E4A51601146096B41F4807114
:101CF00011630CE07A49496841F44041784A5160E7
:101D00001146096B41F48071116300E000BF00BF10
:101D100070477349496821F44001714A5160114686
:101D2000496801435160704710B500226C4B5A68F6
:101D300022F0774242EA00030B43694C636010BD16
:101D4000674A52686A4B1A40654B5A601A46526895
:101D500040EA01031A43624B5A6070476049096BBD
:101D600021F003015E4A11631146096B01431163BF
:101D700070475B49096B21F04001594A11631146D4
:101D8000096B0143116370475549096A21F4407199
:101D9000534A11621146096A0143116270470021DA
:101DA0004F4AD16A21F00F0141EA00024C4BDA623E
:101DB00070474B49096A21F01801494A11621146DE
:101DC000096A0143116270470146454A02EB9110CE
:101DD000006801F01F0301229A40104008B1012061
:101DE00070470020FCE73E48406A40F080703C4964
:101DF0004862704701463A488068084008B10120AF
:101E000070470020FCE7364989680143344A9160F5
:101E10007047334989680143314A916070473049BE
:101E2000896881432E4A91607047F0B506460024C8
:101E300000270025B6F5006F1DD005DC76B3102E07
:101E400009D0182E7BD169E0B6F5106F54D0B6F5E5
:101E5000506F74D132E004E01120FFF7B5FF054662
:101E6000641C15B9B4F5006FF6D11120FFF7ACFF73
:101E700000B1012764E005E040F60100FFF7A4FF90
:101E80000546641C1DB96FF07C408442F4D140F6D5
:101E90000100FFF799FF00B1012751E004E00120A4
:101EA000FFF792FF0546641C15B9B4F5A06FF6D193
:101EB0000120FFF789FF00B1012741E005E040F66E
:101EC0000150FFF781FF0546641C15B9094884429B
:101ED000F5D140F60150FFF777FF00B101272FE061
:101EE000001002400C00FF08FFFFC0F7FFFFF2FEEA
:101EF000FFFFC2F7FFFF0F0005E040F60110FFF7FC
:101F000063FF0546641C15B9F8488442F5D140F6D4
:101F10000110FFF759FF00B1012711E004E019207B
:101F2000FFF752FF0546641C15B9F0488442F6D10C
:101F30001920FFF749FF00B1012701E0FFE700BFCB
:101F400000BF3846F0BDEA4A02EB9011096800F084
:101F50001F0301229A401143E54B03EB90121160DD
:101F60007047E34A02EB9011096800F01F03012259
:101F70009A409143DE4B03EB90121160704701468B
:101F8000B1F5006F18D005DC09B3102909D0182964
:101F900021D11FE0B1F5106F1BD0B1F5506F1AD1F0
:101FA00016E0D34A1068126822F48032D04B1A60CF
:101FB00040F480221A600FE0CD4A106A126A22F0C3
:101FC0000102CB4B1A6240F004021A6204E000BF27
:101FD00000BF00BF00E000BF00BF70470146B1F581
:101FE000006F18D005DC09B3102909D0182921D1B8
:101FF0001FE0B1F5106F1BD0B1F5506F1AD116E08C
:10200000BB4A1068126822F48032B94B1A6020F47F
:1020100080221A600FE0B64A106A126A22F00102AA
:10202000B34B1A6220F004021A6204E000BF00BF42
:1020300000BF00E000BF00BF7047AD48006840F43B
:102040000020AB4908607047A948006820F40020D0
:10205000A749086070470021A54A116821F0F801DE
:1020600041EAC002A24B1A6070470021A04A516B9E
:1020700021F0F80141EAC0029D4B5A6370479D4828
:10208000006800209A49C1F800019A4800689A49FE
:1020900008439749C1F800017047964934310968EF
:1020A00021F00701924AC2F834111146D1F83411D7
:1020B0000143C2F8341170478E493831096821F064
:1020C00001018B4AC2F838111146D1F83811014389
:1020D000C2F8381170472DE9F04F8FB004464FF029
:1020E000000CE0460020002200258146CDF8389003
:1020F0000021CDF83490CDF83090CDF82C9000230D
:10210000CDF82890CDF82490CDF820900026002717
:102110000FF2E81999E8004CD9F80C90CDE905BE0A
:10212000CDF810A0CDF81C900FF2D41ADAE9009A7D
:10213000CDE9029A0FF2C81ADAE9009ACDE9009ABD
:10214000DFF8AC91D9F80490C9F3810CBCF1000F11
:1021500006D0BCF1010F05D0BCF1020F3FD103E066
:102160006A4A3EE0694A3CE0DFF88491D9F804907D
:10217000C9F38343DFF87891D9F80490C9F3C069B3
:10218000CDF82890DDF82890B9F1000F01D0113377
:1021900000E09B1CDFF85891D9F80490C9F300497E
:1021A000CDF82490DDF82490B9F1000F12D0DFF8BB
:1021B0004091D9F82C9009F00F0909F10109CDF8E7
:1021C0002090DFF848A1DDF82090BAFBF9F909FB6F
:1021D00003F203E0DFF8389103FB09F201E04B4A18
:1021E00000BF00BFDFF80891D9F80490C9F30316C7
:1021F0000DF1100919F8067022FA07F5DFF8F090D2
:10220000D9F80490C9F302260DF1080919F80670EF
:1022100025FA07F9CDF83890DFF8D490D9F8049072
:10222000C9F3C2261DF8067025FA07F1072C5CD207
:10223000DFE804F00406080A0C47720010469FE02D
:1022400028469DE00E989BE0084699E0DFF8A090B4
:10225000D9F8309009F48079B9F5807F04D0DFF89F
:10226000B490CDF834902AE0DFF88490D9F8049047
:10227000C9F38138B8F1000F09D0B8F1010F0BD0C4
:10228000B8F1020F0DD0B8F1030F16D110E04FEAEC
:102290005109CDF8349011E04FEA9109CDF834900E
:1022A0000CE04FF00609B1FBF9F9CDF8349005E0E8
:1022B0004FEAD109CDF8349000E000BF00BF0D987F
:1022C0005EE0DFF82C90D9F8309009F04009B9F1C0
:1022D000400F04D048F21209CDF8309003E04FF4DB
:1022E0000049CDF830900C984AE048E0FFFF0F001D
:1022F00000100240001102404D3C2B1A000000006B
:1023000000000000010203040607080900127A0019
:1023100000093D00809FD500DFF86C90D9F830901F
:1023200009F00309B9F1000F01D10B9125E0DFF8A5
:102330005890D9F8309009F00309B9F1010F01D193
:102340000B921AE0DFF84090D9F8309009F00309B9
:10235000B9F1020F04D14FF40049CDF82C900CE0F4
:10236000DFF82490D9F8309009F00309B9F1030F90
:1023700003D1DFF81890CDF82C900B9800E000BF47
:1023800000BF0FB0BDE8F08F0010024000127A00CD
:1023900010B50446FE49601A8C4217D00CDCB4F12B
:1023A000804F1CD0FB48204410B3B0F5406F28D0BC
:1023B000B0F5E05F52D12DE0B0F5A05F33D0B0F5BD
:1023C000C05F39D0B0F5E05F48D13EE040F20B305D
:1023D000FFF7FAFB40F20B30FFF704FC3FE04FF44D
:1023E0008060FFF7F1FB4FF48060FFF7FBFB36E006
:1023F00040F20140FFF7E8FB40F20140FFF7F2FB3B
:102400002DE040F20440FFF7DFFB40F20440FFF70D
:10241000E9FB24E04FF48160FFF7D6FB4FF48160C5
:10242000FFF7E0FB1BE04FF44470FFF7CDFB4FF4E8
:102430004470FFF7D7FB12E040F21130FFF7C4FB06
:1024400040F21130FFF7CEFB09E040F21230FFF707
:10245000BBFB40F21230FFF7C5FB00E000BF00BF3E
:1024600010BD00210180418081804FF6FF718160A5
:102470000021C180017370470A888262C44A904279
:1024800006D0B0F1804F03D0C24A524290420BD1E5
:10249000026822F07002026002684B881A430260F0
:1024A00002688B881A4302608A68C262B84A904206
:1024B00012D0B0F1804F0FD0B64A524290420BD0AA
:1024C000B54A904208D0B54A904205D0B44A9042ED
:1024D00002D0B44A904207D1026822F440720260EE
:1024E0000268CB881A430260A94A904208D0AB4ADE
:1024F000904205D0AA4A904202D0AA4A904201D105
:102500000A7B0263426942F001024261704701683E
:1025100041F0010101607047016821F00101016093
:102520007047016841F0800101607047016821F047
:10253000800101607047016821F00201016070476D
:10254000016841F0020101607047026822F06002F8
:10255000026002680A4302607047016821F01001BE
:1025600001607047016841F01001016070478162AD
:102570001AB9436943F0010343617047016370472F
:10258000C16270474162704701460020486A704747
:10259000014600208A6A90B2704721B9026842F071
:1025A0000802026005E0012903D1026822F0080256
:1025B0000260704721B9026842F00402026005E03F
:1025C000012903D1026822F0040202607047012948
:1025D00004D1826842F00802826004E019B982687E
:1025E00022F0080282607047C2680A43C2607047E6
:1025F000C2688A43C26070470246D06800EA01039D
:102600001069084010B10BB1012070470020FCE7B1
:10261000CA430261704702461069084008B10120B0
:1026200070470020FCE7CA4302617047C2680A4352
:10263000C2607047C2688A43C260704721B942686D
:1026400042F00802426005E0012903D1426822F00D
:1026500008024260704710B5836C41F61F74A343B3
:102660008364836C41EA02042343836410BD42699E
:102670000A4342617047002101604160018141814C
:10268000C160016141617047D1E900231A430B89A0
:102690001A434B891A43CB681A430B691A434B6997
:1026A0001A4342647047416C41F480514164704761
:1026B000416C21F4805141647047416C41F4804188
:1026C00041647047416C21F48041416470470129A5
:1026D00004D1426C42F40042426403E0426C22F4B2
:1026E000004242647047012904D1426842F001026D
:1026F000426003E0426822F001024260704721B963
:10270000426822F00402426005E0012903D14268D8
:1027100042F0040242607047002101608180C18064
:10272000018141818181704710B531B1012953D0B8
:1027300002297DD003297CD1D9E0036A23F001036B
:102740000362836923F003038361036A14682343EC
:102750000362036A23F002030362036AD4882343FB
:1027600003620B4B984208D00C4B984205D00C4B9F
:10277000984202D00B4B98422DD1036A23F00403F8
:102780000362036A948823430362036A0CE0000037
:10279000002C014000FCFFBF002000400040014031
:1027A000004401400048014023F008030362036A2B
:1027B000148923430362436823F4807343604368AE
:1027C000548923434360436823F4007343604368A0
:1027D000948923434360AEE0036A23F0100303624D
:1027E000836923F440738361036A146843EA041322
:1027F0000362036A23F020030362036AD48843EA76
:1028000004130362F84B984226D1036A23F0400375
:102810000362036A948843EA04130362036A23F0A1
:1028200080030362036A148943EA0413036201E02C
:102830001FE07FE0436823F480634360436854896A
:1028400043EA84034360436823F4006343604368BE
:10285000948943EA84034360E44B984208D1436877
:1028600023F4806343604368548943EA84034360EC
:1028700061E0036A23F480730362C36923F00303F6
:10288000C361036A146843EA04230362036A23F4FE
:1028900000730362036AD48843EA04230362D24BC1
:1028A000984223D1036A23F480630362036A948805
:1028B00043EA04230362036A23F400630362036AA6
:1028C000148943EA04230362436823F4805343607A
:1028D0004368548943EA04134360436823F4005374
:1028E00043604368948943EA0413436023E0036A26
:1028F00023F480530362C36923F44073C361036A02
:10290000146843EA04330362036A23F40053036246
:10291000036AD48843EA04330362B34B984208D174
:10292000436823F4804343604368548943EA841333
:10293000436000E000BF00BF10BD31B101290CD0E1
:10294000022913D0032922D118E0836923F07003F0
:1029500083618369134383611AE0836923F4E0434D
:102960008361836943EA0223836111E0C36923F031
:102970007003C361C3691343C36109E0C36923F4EE
:10298000E043C361C36943EA0223C36100E000BFBF
:1029900000BF704731B1012906D0022906D00329B2
:1029A00008D105E0426306E0826304E0C26302E00E
:1029B000026400E000BF00BF704731B101290CD0B4
:1029C000022913D0032922D118E0836923F00803D8
:1029D00083618369134383611AE0836923F400638D
:1029E0008361836943EA0223836111E0C36923F0B1
:1029F0000803C361C3691343C36109E0C36923F4D6
:102A00000063C361C36943EA0223C36100E000BFFE
:102A100000BF704731B101290CD0022913D003291E
:102A200022D118E0836923F004038361836913438F
:102A300083611AE0836923F480638361836943EAD5
:102A40000223836111E0C36923F00403C361C369F6
:102A50001343C36109E0C36923F48063C361C3699D
:102A600043EA0223C36100E000BF00BF704731B1F9
:102A700001290CD0022913D0032922D118E083693F
:102A800023F0800383618369134383611AE08369C0
:102A900023F400438361836943EA0223836111E0E5
:102AA000C36923F08003C361C3691343C36109E0B1
:102AB000C36923F40043C361C36943EA0223C361CA
:102AC00000E000BF00BF704731B101290CD00229DE
:102AD00013D0032923D119E0036A23F00203036210
:102AE000036A134303621BE0036A23F020030362BB
:102AF000036A43EA0213036212E0036A23F40073D9
:102B00000362036A43EA0223036209E0036A23F4CF
:102B100000530362036A43EA0233036200E000BF2A
:102B200000BF704731B101290CD0022913D003290D
:102B300023D119E0036A23F008030362036A1343F5
:102B400003621BE0036A23F080030362036A43EA23
:102B50000213036212E0036A23F400630362036A50
:102B600043EA0223036209E0036A23F40043036299
:102B7000036A43EA0233036200E000BF00BF70470C
:102B800031B101290CD0022913D0032923D119E036
:102B9000036A23F001030362036A134303621BE029
:102BA000036A23F010030362036A43EA0213036219
:102BB00012E0036A23F480730362036A43EA022388
:102BC000036209E0036A23F480530362036A43EA61
:102BD0000233036200E000BF00BF704741B101292A
:102BE0000ED002291ED114E0002C0140004001400B
:102BF000036A23F004030362036A1343036212E0CF
:102C0000036A23F040030362036A43EA0213036288
:102C100009E0036A23F480630362036A43EA022340
:102C2000036200E000BF00BF704700210180012166
:102C3000418000218180C180704731B101290CD0D1
:102C4000022913D0032922D118E0836923F00C0351
:102C500083618369134383611AE0836923F44063CA
:102C60008361836943EA0223836111E0C36923F02E
:102C70000C03C361C3691343C36109E0C36923F44F
:102C80004063C361C36943EA0223C36100E000BF3C
:102C900000BF704770B504460E46154636B1012E8A
:102CA00026D0022E48D0032E7DD168E0206A20F085
:102CB00001002062206A20F00A002062206A298830
:102CC00008432062A06920F00300A061A069698820
:102CD0000843A061A06920F0F000A061A069E98824
:102CE00040EA0110A061206A40F0010020626DE01E
:102CF000206A20F010002062206A20F0A0002062EC
:102D0000206A298840EA01102062A06920F44070FE
:102D1000A061A069698840EA0120A061A06920F44F
:102D20007040A061A069E98840EA0130A061206A92
:102D300040F01000206249E0206A20F48070206298
:102D4000206A20F420602062206A298840EA01205D
:102D50002062E06920F00300E061E06969880843CF
:102D6000E061E06920F0F000E061E069E98840EAB4
:102D70000110E061206A40F48070206226E0206A41
:102D800020F480502062206A20F420402062206AD3
:102D9000298840EA01302062E06920F44070E06157
:102DA000E069698800E010E040EA0120E061E06944
:102DB00020F47040E061E069E98840EA0130E061B8
:102DC000206A40F48050206200E000BF00BFAA8863
:102DD00031462046FFF731FF70BD0246002031B179
:102DE000012906D0022906D0032908D105E0506B3D
:102DF00006E0906B04E0D06B02E0106C00E000BFD6
:102E000000BF70472DE9F04104460E4615460027E5
:102E1000B846288808B9022700E0002768880128FA
:102E200002D14FF0020801E04FF00108002E4CD112
:102E3000206A20F001002062206A20F00A0020624F
:102E4000206A298808432062A06920F00300A0615D
:102E5000A06969880843A061A06920F0F000A06122
:102E6000A069E98840EA0110A061206A40F00100F1
:102E70002062AA8800212046FFF7DFFE206A20F0AA
:102E800010002062206A20F0A0002062206A40EA40
:102E900007102062A06920F44070A061A06940EA98
:102EA0000820A061A06920F47040A061A069E988B1
:102EB00040EA0130A061206A40F010002062AA8838
:102EC00001212046FFF7B9FE4CE0206A20F01000F7
:102ED0002062206A20F0A0002062206A298840EA4F
:102EE00001102062A06920F44070A061A069698887
:102EF00040EA0120A061A06920F47040A061A069AF
:102F0000E98840EA0130A061206A40F010002062A8
:102F1000AA8801212046FFF790FE206A20F00100D8
:102F20002062206A20F00A002062206A3843206272
:102F3000A06920F00300A061A06940EA0800A06138
:102F4000A06920F0F000A061A069E98840EA0110C2
:102F5000A061206A40F001002062AA88002120467A
:102F6000FFF76BFEBDE8F08121B9426842F08002B4
:102F7000426005E0012903D1426822F080024260EC
:102F80007047826822F07002826082680A43826021
:102F90007047426822F07002426042680A43426011
:102FA0007047826822F00702826082680A4382606A
:102FB000704721B9826842F08002826005E00129F1
:102FC00003D1826822F080028260704730B5846845
:102FD00024F43F448460846841EA02052C43846001
:102FE000846844EA0324846030BD30B5846824F0EA
:102FF0000704846084680C438460846940F203356C
:10300000AC438461846940F201152C438461046AF5
:1030100024F00A040462046A24F0A0040462046A2E
:1030200042EA03152C43046230BD816821F0070198
:103030008160704710B503460C4621461846FFF7DD
:10304000A0FF986820F007009860986840F007009B
:10305000986010BD70B504460E461546602E20D10E
:10306000206A20F010002062206A20F0A000206278
:10307000206A40EA05102062A06920F44070A06137
:10308000A06940F48070A061A06920F47040A06144
:10309000A06940EA0330A061206A40F0100020627D
:1030A0001EE0206A20F001002062206A20F00A0061
:1030B0002062206A28432062A06920F00300A061FA
:1030C000A06940F00100A061A06920F0F000A061BB
:1030D000A06940EA0310A061206A40F0010020626C
:1030E00031462046FFF74DFFA06820F00700A060A2
:1030F000A06840F00700A06070BDF0B504460D4622
:1031000016461F463B46324629462046FFF75EFFDD
:10311000A06820F07700A060A06840F07700A06071
:10312000F0BDF0B504460D4616461F463B463246F6
:1031300029462046FFF74AFFA06840F48040A0607F
:10314000F0BD816821F4804181607047016570475E
:103150000948804709480047FEE7FEE7FEE7FEE72B
:10316000FEE7FEE7FEE7FEE7FEE7FEE70448054967
:10317000054A064B70470000033200086901000849
:10318000E0000020E0080020E0040020E00400202F
:103190006D4840686C494860084640684860084689
:1031A0004068486008464068684908406649486089
:1031B0000846406866490843634948600846006815
:1031C00040F08070086000BF5F48006800F0007049
:1031D0000028F9D05C48406820F003005A49486054
:1031E0000846406840F00200486000BF564840680A
:1031F00000F008000028F9D0704710B5FFF7C8FFAD
:1032000010BD10B55048006840F001004E490860FC
:1032100000BF4D48006800F002000028F9D04A487D
:1032200040684C49084048494860084640684A4957
:103230000840454948600846406820F4400048601E
:1032400008460068454908403F4908600846C06A8A
:1032500020F00F00C8620846006B40F2431188431B
:10326000394908630846406B20F00100486300209C
:103270008860FFF7C2FF10BD2DE9FF430021002049
:10328000002200230024002500260FF2D409D9E9EA
:1032900001C8D9F80070D9F80C90CDE901C8CDF873
:1032A0000C900097284F7F68C7F3810121B1012955
:1032B00008D0022932D10BE02D4FDFF8B8C0CCF88E
:1032C000007031E02A4FDFF8ACC0CCF800702BE082
:1032D0001D4F7F68C7F383401B4F7F68C7F3C062F1
:1032E0000AB1113000E0801C174F7F68C7F300431C
:1032F0006BB1154FFF6A07F00F077C1C1C4FB7FB23
:10330000F4F74743DFF86CC0CCF8007005E01A4FC3
:103310004743DFF860C0CCF8007005E0144FDFF8D9
:1033200054C0CCF8007000BF00BF074F7F68C7F3E0
:1033300003151DF805600F4F3F68F740DFF834C0F4
:10334000CCF80070BDE8FF8300100240FFFFC2F719
:10335000000004080C00FF08FFFFC0F7FFFFF2FEAB
:103360000000000000000000010203040607080935
:1033700000127A002000002000093D0070477047CD
:103380007047754600F02CF8AE4605006946534676
:1033900020F00700854618B020B5FFF7E7FEBDE82E
:1033A00020404FF000064FF000074FF000084FF0AC
:1033B000000B21F00701AC46ACE8C009ACE8C0093D
:1033C000ACE8C009ACE8C0098D46704710B50446AA
:1033D000AFF300802046BDE81040FCF70CBF0000B2
:1033E000004870478000002001491820ABBEFEE76E
:1033F00026000200704730B5039C072929D2DFE878
:1034000001F028040A10161C22000025156018601F
:103410004542256022E04542156018600025256080
:103420001CE04542156000251D60206016E0002567
:10343000156045421D60206010E0106045421D602F
:10344000002525600AE0106000251D6045422560CA
:1034500004E0002515601D60256000BF00BF30BD81
:10346000CA08000305040102060000008C340008AD
:103470000000002024000000A4010008B03400086F
:1034800024000020BC080000C0010008000000006B
:10349000000000000000000000000000000000002C
:1034A00000000000000000000000000000A24A042C
:040000050800016985
:00000001FF
